:020000040800F2
:1000000000000120291B0008611B0008510900089D
:10001000570900085D090008630900080000000096
:10002000000000000000000000000000611B00084C
:10003000611B000800000000611B0008611B000834
:10004000611B0008611B0008611B0008611B0008A0
:10005000611B0008611B0008611B0008611B000890
:10006000611B0008611B0008611B0008611B000880
:10007000611B0008611B0008611B0008611B000870
:10008000611B0008611B0008611B0008490900088A
:100090004D090008611B000859080008611B000891
:1000A000611B0008611B0008611B0008611B000840
:1000B000611B00080000000000000000611B000838
:1000C000611B00080000000000000000611B000828
:1000D00000000000611B0008611B00080000000018
:1000E000611B0008611B0008000000000000000008
:1000F0000000000000000000000000000000000000
:10010000000000000000000000000000611B00086B
:100110000000000000000000611B0008611B0008D7
:10012000611B0008611B0008611B0008611B0008BF
:10013000611B00080000000000000000000000003B
:10014000611B0008611B0008611B0008611B00089F
:10015000611B0008611B0008611B0008611B00088F
:10016000611B0008611B0008611B00080000000003
:10017000611B0008611B0008000000000000000077
:10018000611B0008611B0008611B000810B5054CCD
:10019000237833B9044B13B10448AFF30080012333
:1001A000237010BD600C002000000000ACC60008E9
:1001B00008B5034B1BB103490348AFF3008008BDEA
:1001C00000000000640C0020ACC60008154B002B9A
:1001D00008BF134B9D46A3F5803A00218B460F467E
:1001E0001348144A121A04F081F90F4B002B00D067
:1001F00098470E4B002B00D09847002000210400A8
:100200000D000D48002802D00C4800F09BFE03F0C2
:1002100061FF2000290001F03DF800F0E5FF00BF7C
:100220000000080000000120000000008512000806
:10023000600C0020A8100020450F000800000000FE
:1002400043681A6803681A4214BF012000207047EF
:1002500038B504461C2000F0EBFF1C2205460021A7
:1002600004F044F91521284603F06AF91C222560A0
:10027000104600F0DDFF1C220546002104F036F98F
:100280002846002103F05CF96560204638BD014630
:1002900010B50068FFF7D4FF04464868FFF7D0FFA9
:1002A000A04205D10868FFF7CBFF8860012010BD90
:1002B0000020FCE7014608B50068FFF7C1FF8B6826
:1002C000834207D14868FFF7BBFF8B68181A18BF35
:1002D000012008BD0120FCE707B50023037601914A
:1002E000009003F0C3FBDDE9000101F0EFF903F03A
:1002F000D3FB009803B05DF804FB38B504460D4607
:1003000003F0B4FB237E1BB903F0F6FC0123237634
:100310002946204601F0BEF8BDE8384003F0BCBBDA
:1003200007B5CDE9001003F0A1FBDDE9001001F0F5
:1003300047FA03B05DF804EB03F0AEBB704738B585
:1003400004461C2000F074FF0B210546FFF7C4FF94
:1003500025601C2000F06CFF08210546FFF7BCFF5C
:1003600065601C2000F064FF03210546FFF7B4FF21
:10037000A5601C2000F05CFF01210546FFF7ACFFE3
:100380002068E56002210025FFF7CAFF60680221AE
:10039000FFF7C6FF20682946FFF7AFFF60682946D0
:1003A000FFF7ABFFA0680221FFF7BAFFE068022168
:1003B000FFF7B6FFA0682946FFF79FFFE0682946D0
:1003C000FFF79BFF38BDFFF7BABF000010B5044B25
:1003D0000361002304468382FFF7B1FF204610BD6E
:1003E0000000484210B52DED028B427D90F914308B
:1003F0009FEDCF8A0446002A00F0E680002B1CD136
:1004000040680021FFF779FFA0680021FFF775FF22
:10041000D4ED047A2068C7EE887A17EE901AFFF7B9
:100420006CFFD4ED047AC7EE887A17EE901AE06874
:10043000FFF763FFBDEC028B10BD53DD322B4FF095
:10044000000126DD0068FFF758FFA0680021FFF7D4
:1004500054FFD4ED047A6068C7EE887A17EE901ADC
:10046000FFF74BFFD4ED046A94F9143086EE887AD6
:1004700007EE903AF8EEE77A67EE877A87EE887AA9
:10048000B5EEC07AF1EE10FAACBF17EE101A0021EB
:10049000CDE74068FFF731FFA0680021FFF72DFF8F
:1004A000D4ED047AE068C7EE887A17EE901AFFF769
:1004B00024FFD4ED047A9FED9F6A94F91430C7EEBF
:1004C000866A07EE103AB8EEC77AE7EE667A87EEEC
:1004D000887AB5EEC07AF1EE10FAC0F2F88017EE25
:1004E000101A6FE0D0ED047A4068C7EE887A17EEF4
:1004F000901AFFF702FFD4ED047AA068C7EE887A5D
:1005000017EE901AFFF7F9FE94F9143032334FF0DA
:1005100000012BDA2068FFF7F0FEA0680021FFF74A
:10052000ECFED4ED047AE068C7EE887A17EE901AF4
:10053000FFF7E3FED4ED046A94F9143086EE887A6E
:10054000002BB8BF5B42DBB207EE903AF8EEE77AD9
:1005500067EE877A87EE887AB5EEC07AF1EE10FA08
:10056000C0F2E38017EE101A606861E76068FFF779
:10057000C4FEA0680021FFF7C0FED4ED047AA06895
:10058000C7EE887A17EE901AFFF7B7FE94ED047A5B
:100590009FED686A94F91430C7EE066A002BB8BF65
:1005A0005B42DBB207EE903AF8EEE77AA7EEE67A26
:1005B000C7EE087AF5EEC07AF1EE10FAC0F2878045
:1005C00017EE901A206833E7002B18D1006800213D
:1005D000FFF793FEE0680021FFF78FFED4ED047A69
:1005E0006068C7EE887A17EE901AFFF786FED4EDA2
:1005F000047AC7EE887A17EE901AA06818E72DDD06
:10060000322B00684FF000013FF71DAFFFF775FE7A
:10061000E0680021FFF771FED4ED047A6068C7EE50
:10062000887A17EE901AFFF768FED4ED047A9FEDF2
:10063000416A94F91430C7EE866A07EE103AB8EEB4
:10064000C77AE7EE667A87EE887AB5EEC07AF1EE81
:1006500010FAACBF17EE101A0021CEE7D0ED047AE5
:100660004068C7EE887A17EE901AFFF746FED4ED81
:10067000047AA068C7EE887A17EE901AFFF73DFE5D
:1006800094F9143032334FF0000122DA6068FFF73A
:1006900034FEE0680021FFF730FED4ED047AA06854
:1006A000C7EE887A17EE901AFFF727FED4ED046A9A
:1006B00094F9143086EE887A002BB8BF5B42DBB227
:1006C00007EE903AF8EEE77A67EE877AFFE60021C8
:1006D00078E72068FFF711FEE0680021FFF70DFEC4
:1006E000D4ED047AA068C7EE887A17EE901AFFF767
:1006F00004FE94ED047A9FED0F6A94F91430C7EE6E
:10070000066A002BB8BF5B42DBB207EE903AF8EE08
:10071000E77AA7EEE67AC7EE087AF5EEC07AF1EE50
:1007200010FA02DB17EE901A1EE700211CE700BF4B
:100730000000C8420000484207EE901AF8EE677ABF
:10074000C0ED047AFFF74EBE01754275FFF74ABE51
:1007500010B5104B1C78844205D10F48FFF733FECB
:100760000E4B1C6010BD0E4B1C78844203D10A480E
:10077000FFF7E4FDF4E70B4B1C788442F2D1002232
:1007800011460548FFF7E0FF03481421FFF7D4FFA7
:10079000E6E700BF7C0C0020A80C0020C00C002065
:1007A0008C0100208E01002008B51448144C154D12
:1007B000FFF76DFD26462A7823689A42FDD00F4840
:1007C000FFF778FD18B1104B1878FFF7C1FF0F4AFB
:1007D000336810780E4A12789A4202D1FFF7B8FFB8
:1007E000E9E78342E7D10B4800226FF06301FFF78E
:1007F000ABFF08481421FFF79FFFDCE7800C0020C7
:10080000C00C00207C0C00208D0100208E010020F7
:100810008C010020A80C002008B50A4B1C221846A9
:10082000002103F063FE132102F09DFE0648FFF74E
:10083000CDFD0648FFF70CFD054B1A78054B1A60F5
:1008400008BD00BF8C0C0020A80C0020800C0020EC
:100850008C010020C00C0020354B5A69D20770B5BE
:1008600028D59868334E9968334D9A68334C304098
:10087000B04201EA050104BF01269E60A9422C4B4B
:1008800002EA040204BF4FF480759D60A24204BFD7
:100890004FF480349C60274B984205D0264B9942F8
:1008A00002D0264B9A4205D1254B264A1B68106878
:1008B000012198471E4CE2686369960707D09D079F
:1008C00005D51F4B1F4A1B68106800219847A16976
:1008D000626963698C0709D5900507D5190405D5A8
:1008E000174B184A1B68106805219847104A9569EC
:1008F0005469526915F0040504F4806408D03CB1D1
:10090000120405D50E4B0F4A1B6810680721984743
:10091000074B5B6955B14CB11B0407D5084B094A1D
:100920001B6810680221BDE87040184770BD00BF09
:1009300000640040030000040003000800000310EE
:10094000C80C0020C40C0020FFF786BFFFF784BF4F
:10095000102300F009B8202300F006B8302300F07F
:1009600003B8402300F000B8EFF30880042172467A
:100970000A4201D0EFF309809C46244B19680268B3
:100980000A60043142680A60043182680A600431F6
:10099000C2680A600431F0C147460F6004314F4617
:1009A0000F60043157460F6004315F460F60043119
:1009B00002690A60083142690A60043182690A608A
:1009C0000431C2690A600431034620334FF40076D3
:1009D000324200D0043375461026354200D14833E8
:1009E0000C46103C2360EFF309820A600431EFF3F8
:1009F00008820A60043172460A600431EFF31482FF
:100A00000A606046014900F09DF9FEE7A8BA0008B7
:100A100030B5036891FAA1F4B4FA84F491FAA1F123
:100A20000325B1FA81F1640005FA04F4490023EAD0
:100A3000040302FA01F11943016030BD1FB51D4BDB
:100A4000072834D8DFE800F004121D33333333288D
:100A5000DA6C42F00102DA64DB6C03F0010300930C
:100A6000009B4FF0904005B05DF804FBDA6C124833
:100A700042F00202DA64DB6C03F002030193019B93
:100A8000F1E7DA6C0D4842F00402DA64DB6C03F043
:100A900004030293029BE6E7DA6C094842F0800205
:100AA000DA64DB6C03F080030393039BDBE7054808
:100AB00003F0EAF800100240000400480008004873
:100AC000001C00481CBA0008431C10B5044604D1A1
:100AD00076220649064802F0ADFF002100F0FEFB39
:100AE00004F00F040120A04010BD00BF3DBA000873
:100AF0008FBA000870B504464B1C0E46218218D0F0
:100B0000C1F30310FFF79AFF05463046FFF7DCFFFD
:100B1000238A084A656103F00F03206052F82330EE
:100B2000A36105F11003636005F118032835A36084
:100B3000E56070BD90BD0008B0F9100000F060BC29
:100B40000A4619B981694069FFF762BF0122F9E7D6
:100B500008B502F02FFC002008BD000008B50A4BC4
:100B60001B684BB102F058FF02F040FF4FF47A725D
:100B7000002309F00BFF08BD02F07CFC4FF47A73F0
:100B8000B0FBF3F008BD00BFCC0C002000B589B06D
:100B900002F06CFF132101A802F0E5FC104E114D8C
:100BA0000424039B019A1A60304603F0C7F8049BA3
:100BB000019A1A60304603F0C1F8013CF1D10424D7
:100BC000039B019A1A60284603F0B8F8049B019A27
:100BD0001A60284603F0B2F8013CF1D1E0E700BF0B
:100BE000F0490200801A060010B5044602F03EFFEC
:100BF000204603F025FD21460246022000F03CFA83
:100C0000BDE8104002F048BF10B5A2B00B46024646
:100C1000842101A805F0F8FB8328044605D90522A4
:100C200005490DF1830003F05BFB002C02DD01A8F8
:100C3000FFF7DAFF22B010BDA2BA00080FB407B563
:100C400004A951F8040B0191FFF7DEFF03B05DF832
:100C500004EB04B070470000F0B52C4C2C4F85B06D
:100C60000025264654F82520294638460135FFF749
:100C7000E5FF0D2DF6D1A36C0293636C0193236CF9
:100C8000009304F13401234C23480EC9FFF7D6FF2B
:100C900021682248FFF7D2FFE16AA26AA36AA06A2C
:100CA000256BE76B0297000C01950090C3F30723B7
:100CB000D2B21B48FFF7C2FFA36A1D0603D5616BC2
:100CC0001848FFF7BBFFA36A180403D5A16B1648A9
:100CD000FFF7B4FFF36C190712D51448FFF7AEFF06
:100CE000336DDA070FD51248FFF7A8FFF36C5B07E7
:100CF0004CBF1048104805B0BDE8F040FFF79EBF5C
:100D00000E48FFF79BFF0E48EEE700BF2C0E0020B9
:100D10003CBB000800ED00E04ABB000899BB00089E
:100D2000A7BB0008F6BB000804BC000812BC000802
:100D300021BC000851BC00085DBC000841BC000893
:100D40002EBC000813B504461548FFF777FF302C7A
:100D500017D0402C1AD0202C1DD11248124CFFF76E
:100D60006DFF1248FFF76AFFFFF776FF1048FFF7A5
:100D700065FF00230F4A0093D26B0F49204602F013
:100D8000A3FF0E480E4CFFF759FFEAE70D480E4C43
:100D9000FFF754FFE5E70D480D4CFFF74FFFE0E785
:100DA000ACBA0008D5BA00083E01FF8002BB0008BB
:100DB0000DBB00082C0E00202CBB0008E4BA000874
:100DC0003F01FF80EDBA00084001FF80F8BA00083B
:100DD0003D01FF8008B502F07DFA00F0C3FE02F08D
:100DE0006FFA02F077FA024B01221A6008BD00BFC9
:100DF000CC0C002000207047036801221B690021F1
:100E00001847036800221B691146184703681B69CD
:100E1000184703689B69184703689B6A18470029AD
:100E20000CBF6FF01800002070470120704770471A
:100E30006FF01C0070476FF015007047012070477D
:100E40000020704770470000F8B5074E15460C4665
:100E50008F18BC4205D014F8011B304600F04CFE40
:100E6000F7E72846F8BD00BF800E002038B58DB2E8
:100E700015F0010405D0084800F0BCFC041C18BFA4
:100E80000124EB0605D5044800F0C4FC08B144F089
:100E90001004204638BD00BF800E002010B5044667
:100EA00003F0C6F9204610BD10B50C462AB104481F
:100EB00000F00CFE2070012010BD104610BD00BFD8
:100EC000800E002038B51D46074B0360074B1B689A
:100ED000044633B9064800F057FD2946044800F09F
:100EE000E9FC204638BD00BF74BC0008200D00207E
:100EF000800E002000207047002070470C4A1368C5
:100F000010B51844EFF30881884205D3094B0C2231
:100F10001A604FF0FF3010BD07490C6824B1074933
:100F2000096821448842F1D21060184610BD00BF04
:100F300090020020A4100020D80C0020DC0C00201F
:100F400001207047012070477047704708B5FFF7D0
:100F5000FBFF08BD08B5FFF7F8FF08BD08B503782B
:100F600003F00302012A0BD02AB140F28C5205494A
:100F7000054802F05FFD43F002030370012008BD45
:100F8000002008BDD9BC000828BD000808B50378BA
:100F900003F00302022A05D040F2945204490548A6
:100FA00002F048FD23F0030343F00103037008BD82
:100FB000D9BC00084EBD00083F2870B504462FDCA0
:100FC000184D55F820305A1C13D1022811DCFFF7B8
:100FD00093FF034658B92046FFF78CFF034630B90C
:100FE000114E3378BFF35B8FDB0704D50F4B45F809
:100FF0002430184670BD3046FFF7B0FF0028F5D00A
:101000004FF416530F2202210848FFF75BFF3046CA
:10101000FFF7BCFF064A07490448FFF791FFE5E7E1
:101020000023E6E790010020D00C0020D40C002023
:1010300088010020450E000838B50546FFF7BCFFC3
:101040000B4B002443F8254030B902F0C7FE0923BA
:1010500003604FF0FF3038BD03685B699847051E99
:1010600004DA02F0BBFE6D420560F2E7204638BDAF
:1010700090010020FFF7E0BF38B50C461546FFF79A
:101080009BFF38B902F0AAFE092303604FF0FF343A
:10109000204638BD03682146DB682A469847041E6F
:1010A000F6DA02F09BFE64420460EFE708B5131E17
:1010B00006DA02F093FE162303604FF0FF3008BDFE
:1010C00004D0FFF7D9FF40EAE07008BD184608BD1C
:1010D00038B50C461546FFF76FFF38B902F07EFEB3
:1010E000092303604FF0FF34204638BD03682146D2
:1010F0009B682A469847041EF6DA02F06FFE6442A7
:101100000460EFE7002A08B503DBBDE80840FFF7FD
:10111000DFBF02F063FE162303604FF0FF3008BD0F
:1011200010B5FFF749FF044628B902F057FE09231E
:101130000360204610BD0368DB699847041EF8DA97
:1011400002F04CFE644204600024F2E7FFF7E8BFBF
:1011500038B50C461546FFF72FFF38B902F03EFEB2
:10116000092303604FF0FF34204638BD0368214651
:101170001B692A469847041EF6DA02F02FFE6442E5
:101180000460EFE7FFF7E4BF10B5FFF715FF30B9D4
:1011900002F024FE092303604FF0FF3010BD036806
:1011A0009B699847041E04DA02F018FE644204604A
:1011B000F2E7002010BD00000A4C08B52368054680
:1011C000986802F0D7FE2368D86802F0D3FE0120A9
:1011D000FFF7DAFF0220FFF7D7FF0DB1FFF7D6FCCC
:1011E000FEE700BF9C02002008B5FFF7E5FF38B519
:1011F0000D46FFF7E1FE044630B902F0EFFD09238A
:1012000003604FF0FF3038BD0368DB699847002862
:1012100014BF4FF400534FF400436B602368204623
:101220009B6A98472861002038BDFFF7E0BF0000A7
:1012300013B5044602F0F4FF034628B90090224695
:101240000249034802F040FD02B010BDBCBC0008DA
:101250001F01018070477047074B08499A6808488A
:1012600010B5043A52F8044F41F8044F8142F9D1C5
:101270004FF000529A6010BD00ED00E0FCFFFF1F30
:101280008401002008B5FFF7E7FFFFF7A3FDFFF794
:10129000E2FF08BD08B5FFF7DDFFBDE80840FFF736
:1012A00083BA30B5C36891FAA1F4B4FA84F491FA20
:1012B000A1F10325B1FA81F1640005FA04F44900B3
:1012C00023EA040302FA01F11943C16030BD012A87
:1012D00002D0022A18BF0022FFF7E3BF2DE9F04138
:1012E0000E46411C04D1424942483E2202F0A2FB74
:1012F00000F00F08404BC0F3031053F82840FFF7ED
:101300009DFB06F00705836894FAA4F1B1FA81F118
:1013100094FAA4F20327490007FA01F1B2FA82F223
:1013200023EA01035200022101FA02F2134383600F
:10133000BD4258D8DFE805F01D1D021DB8F1070FAA
:10134000C6F3032739D9426A230A93FAA3F1B1FA03
:1013500081F193FAA3F34FF00F0EB3FA83F38900F0
:101360000EFA01F19B0022EA010207FA03F313438C
:101370004362026894FAA4F1B1FA81F194FAA4F3F9
:101380000327B3FA83F3490007FA01F15B0005FA7A
:1013900003F322EA0102013D1343012D036005D846
:1013A000436832074CBF2343A3434360C6F3011293
:1013B0002146BDE8F041FFF78ABF026A94FAA4F320
:1013C000B3FA83F394FAA4F14FF00F0EB1FA81F15E
:1013D0009B000EFA03F3890022EA030207FA01F3E5
:1013E00013430362C5E76722014904487EE700BF53
:1013F000D0BD00088FBA000890BD0008DBBF000810
:10140000431C70B50D4604D188221F491F4802F0C5
:1014100011FB00F00F021E4BC0F3031053F82240E3
:10142000FFF70CFB066894FAA4F1B1FA81F394FA81
:10143000A4F259000323B2FA82F28B4033405200E7
:10144000D340013B012B05D8EB1E022B436809D882
:1014500023434360032D08D101222146BDE870409B
:10146000FFF735BF23EA04034360012DF4D0052DB7
:1014700001D0022D01D10222EFE721460022BDE872
:101480007040FFF70EBF00BFD0BD00088FBA000844
:1014900090BD000830B507EE901A2B4B02681A6019
:1014A000F5EEC07AF1EE10FA89B005462DD4B7EE0C
:1014B000007AF4EE477AF1EE10FAC8BFF0EE477A00
:1014C00095ED037AB8EE477A67EE277A17EE900A21
:1014D00008F00CFF1D4B002208F0AAFD09F036FAB7
:1014E000602328610193AB68B0FBF3F00023039302
:1014F00005930693049307932B7D0290013B032BE6
:101500001CD8DFE803F013050F11DFED117AD7E7E0
:101510000424224601A90C4801F0F4FA40B10D4818
:1015200002F0B2FB0824F4E70C24F2E70024F0E711
:101530006B7D054821461BB101F0D4FB09B030BDDD
:1015400001F0A4FBFAE700BFE00C00200000E03F40
:1015500000000000BABE0008C368ABB107EE903AC5
:10156000D0ED046AB8EE677AF8EE666AC6EE877A5E
:10157000B7EE007AF4EE477AF1EE10FAC8BFF0EE5B
:10158000477A17EE900A7047DFED017AF9E700BF5E
:10159000000000002DE9F04F0768474C87B000239A
:1015A0000E46009305462760FFF7D6FF396A41F2E1
:1015B00011131942834608D1396A40F24443194253
:1015C00002BF3B6823F001033B6001A8694600F0BD
:1015D000F7FE2868394B0022D1B2013253F831703E
:1015E0008742F9D110B9364802F04EFB03EBC10334
:1015F0001B79002B3ED100F0C3FE009004980099A7
:101600000123AB602F4B002839D1B1FBF3F3013B31
:10161000636006F1FF3C2B4B6268B1FBF3FE4FEABF
:1016200041080021B8FBF3F8C4F80CC063468A46B1
:101630004FF6FE79B3F5803F25D2B2F5803F22D236
:10164000BAF1000F00D0626001B1E36000231A48D4
:101650002361A36001F004FA30BBEE6059462846CE
:10166000FFF718FF2268136843F00103136007B007
:10167000BDE8F08F00F094FE00900598BFE74A00A7
:10168000B2FBF3F3C3E7AB685B00AB6070B90EFB72
:1016900003F2BCFBF3F34B4502F1FF3209D8B2F57C
:1016A000803F06D36260E36007489DE708FB03F2D2
:1016B000EFE701218A46BDE7E00C0020D4BE000818
:1016C000A5BE000840420F00BABE000830B50D4666
:1016D000044685B03249284601F090FF2060013071
:1016E00004D1304930482E2202F0A4F92C49284672
:1016F00001F0A6FF431C03D132222A492B48F3E70D
:10170000C0F3043323752A4A2368C0F34040934250
:1017100060751AD1274B1A6E42F400621A661B6E6E
:1017200003F400630093009B1D49284601F01EFF4F
:101730000023E36023610123A580A36044F62061B8
:101740002046FFF727FF05B030BDB3F1804F0BD126
:1017500003F504339A6D42F001029A659B6D03F024
:1017600001030193019BDFE7134A93420AD1114B16
:101770001A6E42F480321A661B6E03F480330293B1
:10178000029BD1E70D4A9342CED10A4B1A6E42F426
:1017900000321A661B6E03F400330393039BC3E706
:1017A0002CB9000820BE000874BE00088CBE0008DA
:1017B000002C014000100240004001400044014064
:1017C0004FF47A735943FFF7E5BE00000FB407B535
:1017D000064B07491B6805AAD868019204F08EFDE4
:1017E00003B05DF804EB04B0704700BF9C0200201A
:1017F000FCBE0008426878235343054AD358DA698F
:10180000120744BF08221A62D869C0F3401070471B
:10181000CC0E0020426878235343034AD358D8693A
:10182000C0F3C010704700BFCC0E002042680168B2
:10183000782353431D4A10B599509C188268626002
:10184000C368A3600369E36043692361036AA3611A
:101850000023A4F85230E361A4F85030A4F85A30C1
:10186000A4F85830B0F91A30013312D1082363615B
:101870000F4B994208D1B2F5165F204610D801F0FF
:1018800064FC204601F04BFC2046BDE8104001F00E
:1018900014BCB0F9183001330CBF04230C23E6E765
:1018A00001F07FFC204601F066FCEDE7CC0E002045
:1018B0000080004070B50268254B04469A42A6B0ED
:1018C0000E46A16018D15422002111A802F00EFE8C
:1018D0002023B6F5165F119317DD002311A81B9383
:1018E00000F018FE2046FFF7A1FF78B34FF48063A5
:1018F00011A81B9300F00EFE2046FFF797FF28B3B8
:1019000031461448FFF762FF20E0134DD5F89010E0
:1019100011F002010BD14422684602F0E7FD0423D6
:1019200000936846012302930A9300F0EBF9D5F87F
:1019300090309B07D1D54FF4406311A81B9300F062
:10194000E9FD2046FFF772FF0028C6D126B070BD22
:1019500000800040FCBE000800100240094B984285
:101960000BD0A3F57443984209D003F57053984205
:101970000CBF02204FF0FF3070470020704701205D
:10198000704700BF00380140F0B50E4685B00446F0
:1019900043493046154601F031FE42490746284684
:1019A00001F02CFE0146384601F004FE20600130B3
:1019B00004D13D493D483D2202F03CF8022E0AD0B8
:1019C0000F2D08D03649022001F018FE87421BD1A6
:1019D000374802F059F901272068364B984215D153
:1019E00003F558431A6E42F480421A661B6E03F4E4
:1019F00080430193019BFFF7B1FF0028606023DA69
:101A0000A42229492C48D7E70027E5E72B4B984229
:101A10000BD103F5E6339A6D42F400329A659B6D63
:101A200003F400330293029BE5E7254B9842E2D191
:101A300003F5C833DA6D42F00102DA65DB6D03F0BD
:101A400001030393039BD6E71549304601F08EFD51
:101A50001449284601F08AFD721C03D0012130464A
:101A6000FFF7CEFC6B1C03D001212846FFF7C8FC12
:101A70004FF41653A3600023E36023616361236284
:101A8000268365832046FFF7D1FE3FB10D4B0E48FC
:101A900001221A6021464C2202F022FC05B0F0BD62
:101AA000ECB90008BCB9000826BF00087ABF0008DE
:101AB00096BF000800380140CBBF0008004400403A
:101AC00000800040200D0020800E002038B54568C1
:101AD00004462046FFF78EFE0028FAD07823054AF8
:101AE000E1686B43D358988C09B9C0B238BDC0F3D4
:101AF000080038BDCC0E002070B5466805460C467F
:101B00002846FFF787FE0028FAD07823054AE968BF
:101B10007343D35811B9E4B21C8570BDC4F30804F3
:101B2000FAE700BFCC0E0020DFF824D0002103E04C
:101B3000084B5B58435004310748084B42189A42FF
:101B4000F6D301F045FBFEF741FB7047FEE70000CE
:101B500000000120B8C6000888010020600C0020A9
:101B6000FEE7704708B5032000F008F80F20FEF7E5
:101B7000EFFFFFF7F6FF002008BD0000074AD3681B
:101B800023F4E0631B041B0C43F0BF63000243F427
:101B9000003300F4E0600343D360704700ED00E0E1
:101BA000024B186800F4C060704700BF007000402E
:101BB00037B51E4DAB6DDA00044618D5FFF7F0FFC0
:101BC000B0F5007F23D1802C29D9A02C8CBF022016
:101BD0000120174A136823F00703034313601368B7
:101BE00003F00703181A18BF012003B030BDAB6D16
:101BF00043F08053AB65AB6D03F080530193019BC1
:101C0000FFF7CEFFAB6D23F08053AB65D8E7802C98
:101C100007D808D0A4F1700358425841D9E70020F2
:101C2000D7E70320D5E70220D3E700BF001002402A
:101C3000002002402F4B9A6812F00C0F10B509D00B
:101C40009A6802F00C020C2A2DD1DA6802F0030225
:101C5000012A28D11A682849120755BFD3F89420C1
:101C60001A68C2F30322C2F3031251F822209968C2
:101C700011F00C0F0CBF10460020996801F00C0108
:101C80000C2930D1DC68D868C0F30210411C04F084
:101C90000300022819D0032826D0B2FBF1F2D8683D
:101CA000C0F3062017E09A6802F00C02042A07D05D
:101CB0009A6802F00C02082A04D110480022DCE7DE
:101CC0000F48FBE700200246D7E7DA680C48C2F36A
:101CD0000622B0FBF1F0DB68C3F3416301335043EC
:101CE0005B00B0FBF3F010BDDA680448C2F30622D3
:101CF000EFE700BF001002401CC0000800127A008D
:101D00000024F40003682DE9F3410446D80639D5D0
:101D1000AB4DAB6813F00C0F62D12B68990703D55C
:101D2000A3690BB901207FE02B68206A1A0756BF10
:101D3000D5F894302B681B0903F0F00383423AD2A4
:101D4000FFF736FF0028EDD12B6843F008032B6026
:101D50002B68226A23F0F00313432B606B68E2695F
:101D600023F47F4343EA02236B60FFF763FFAB6812
:101D7000944AC3F30313D35CD840934B18600F20ED
:101D8000FEF7E6FE2368D80761D42368990700F1BF
:101D9000A98023681A0700F1E78023685B0700F138
:101DA000158123689A0600F17C81A16A002940F020
:101DB000A381002038E02B6843F008032B602B68D8
:101DC00023F0F00303432B606B68E26923F47F4345
:101DD00043EA02236B60FFF7EBFE0028C5D0A1E7C2
:101DE000A36923B32B6843F001032B60FEF7B6FE13
:101DF00006462B689B0711D52B6843F008032B6020
:101E00002B68226A23F0F00313432B606B68E269AE
:101E100023F47F4343EA02236B60B3E7FEF79EFEA1
:101E2000801B0228E5D9032002B0BDE8F0812B68B1
:101E300023F001032B60FEF791FE06462B689F07F7
:101E4000A0D5FEF78BFE801B0228F7D9EBE75C4D8F
:101E5000AB6803F00C03082B09D0AB6803F00C034C
:101E60000C2B0BD1EB6803F00303032B06D12B687B
:101E70009A038AD56368002B87D153E76368B3F56B
:101E8000803F10D12B6843F480332B60FEF766FE51
:101E900006462B689B033FF578AFFEF75FFE801B7D
:101EA000C828F6D9BFE7B3F5A02F04D12B6843F4B7
:101EB00080232B60E6E72A6822F480322A602A68B1
:101EC00022F480222A60002BE0D1FEF747FE06466E
:101ED0002B689F037FF559AFFEF740FE801BC82893
:101EE000F6D9A0E7364DAB6803F00C03042B09D0FC
:101EF000AB6803F00C030C2B13D1EB6803F0030366
:101F0000022B0ED12B685E0503D5E368002B3FF44E
:101F100009AF6B68226923F0F85343EA02636B60F0
:101F200037E7E3687BB12B6843F480732B60FEF7DF
:101F300015FE06462B685805EBD4FEF70FFE801BF6
:101F40000228F7D96FE72B6823F480732B60FEF724
:101F500005FE06462B6859057FF51BAFFEF7FEFD13
:101F6000801B0228F6D95EE76369154D9BB1D5F851
:101F7000943043F00103C5F89430FEF7EFFD0646B8
:101F8000D5F894309F073FF508AFFEF7E7FD801BBB
:101F90000228F5D947E7D5F8943023F00103C5F8B6
:101FA0009430FEF7DBFD0646D5F8943098077FF5B0
:101FB000F4AEFEF7D3FD801B0228F5D933E700BF4E
:101FC0000010024002C00008940200208F4DAB6D4B
:101FD000D90027D4AB6D43F08053AB65AB6D03F0F4
:101FE00080530193019B0127894E3368DA051BD585
:101FF000A368012B29D1D5F8903043F00103C5F82F
:102000009030FEF7ABFD41F288380646D5F89030A7
:10201000980740D5002F3FF4C4AEAB6D23F080533A
:10202000AB65BEE60027DFE7336843F480733360B7
:10203000FEF794FD80463368DB05D9D4FEF78EFDAC
:10204000A0EB08000228F6D9EDE6052B06D1D5F85D
:10205000903043F00403C5F89030CCE7D5F89020D9
:1020600022F00102C5F89020D5F8902022F0040259
:10207000C5F89020002BC4D1FEF770FD41F28838DE
:102080000646D5F890309907C4D5FEF767FD801B4A
:102090004045F6D9C7E6FEF761FD801B4045B5D93E
:1020A000C1E6636A594D9BB1D5F8983043F00103FE
:1020B000C5F89830FEF752FD0646D5F898309B07D4
:1020C0003FF573AEFEF74AFD801B0228F5D9AAE65C
:1020D000D5F8983023F00103C5F89830FEF73EFD9F
:1020E0000646D5F898309F077FF55FAEFEF736FDC0
:1020F000801B0228F5D996E6444B9A6802F00C0240
:102100000C2A1D4656D01B68022923F080732B60D1
:1021100036D1FEF723FD06462B6898012AD4A36B1F
:10212000626BDB0643EA0223E26A1343226B013A45
:1021300043EA0213E26B5208013A43EA4253226C2B
:102140005208013A43EA4263EB602B6843F0807324
:102150002B60EB6843F08073EB60FEF7FFFC0446F6
:102160002B6899013FF525AEFEF7F8FC001B02280D
:10217000F6D958E6FEF7F2FC801B0228CCD952E6CD
:102180002B681A015EBFEB6823F00303EB60EB687A
:1021900023F0887323F48033EB60FEF7DFFC044602
:1021A0002B689B017FF505AEFEF7D8FC001B0228CB
:1021B000F6D938E69A68E16A02F003028A427FF4AF
:1021C000B1AD9A68216B02F070028A427FF4AAAD29
:1021D0009A68616B02F4FE428A427FF4A3AD9A686A
:1021E000A16B02F400328A427FF49CAD9A68E16BE5
:1021F00002F4C0028A427FF495AD9868236C00F027
:10220000C060C01A18BF01200EE600BF00100240D7
:1022100000700040564A136803F007038B422DE913
:10222000F04105460E462BD32B68D90735D42968D3
:102230008A0700F183804E4A136803F007039E4229
:10224000C0F0848011F0040F4A4C40F08A800B07E4
:1022500006D5A3682A6923F4605343EAC203A36046
:10226000FFF7E8FCA368444AC3F30313D35CD840E8
:10227000424B18600F20FEF76BFC0020BDE8F08198
:10228000136823F007030B431360136803F007037D
:102290009942C9D00120BDE8F0816A68354C032A13
:1022A00023681CD113F0007FF4D0A36823F003034C
:1022B0001343A360FEF752FC6B68032B074641F201
:1022C000883818D1A36803F00C030C2BAFD0FEF7AD
:1022D00045FCC01B4045F5D90320BDE8F081022A2A
:1022E00002D113F4003FDFE712B913F0020FDBE76E
:1022F00013F4806FD8E7022B0AD1A36803F00C0314
:10230000082B94D0FEF72AFCC01B4045F5D9E3E723
:1023100073B9A36813F00C0F89D0FEF71FFCC01B24
:102320004045F6D9D8E7FEF719FCC01B4045D3D885
:10233000A36803F00C03042BF5D178E70D4AA868D5
:10234000936823F0F0030343936074E7136823F06A
:10235000070333431360136803F007039E4299D1C8
:1023600070E7A368EA6823F4E0631343A3606EE7B1
:10237000002002400010024002C000089402002029
:10238000044B054A9B68C3F30223D35C034A1068DD
:10239000D84070470010024012C00008940200208C
:1023A000044B054A9B68C3F3C223D35C034A1068FD
:1023B000D84070470010024012C00008940200206C
:1023C0000F2303600B4B9A6802F0030242609A6885
:1023D00002F0F00282609A6802F4E062C2609B68D8
:1023E000DB0803F4E0630361034B1B6803F007039E
:1023F0000B6070470010024000200240F8B5444BCB
:10240000DA6812F0030F05460E461C46006839D004
:10241000DA6802F0030282424BD1002A49D0DB681D
:102420006A68C3F302130133934242D1236823F055
:1024300080632360FEF792FB074623681A0141D4AC
:10244000AF68002E45D0012E4FD12269286922F4B1
:10245000C002400822F4FE42013842EA072242EA62
:1024600040522261236843F080632360FEF776FBCD
:10247000064623681B0145D52369AA6913432361D6
:102480000020F8BD022810D0032814D0012810D154
:102490001B689F07F5D5E3686A6823F07303013A68
:1024A000184340EA0210E060C0E71B6813F4806F35
:1024B000F1D10120F8BD1A689103ECD41B6813F424
:1024C000802FF5E7FEF74AFBC01B0228B5D9032091
:1024D000F8BD2269E96822F07842C90641EA07237B
:1024E00022F4FE4213432361BCE72369686923F0A9
:1024F000C063400823F4FE43013843EA072343EA5C
:102500004063F0E7FEF72AFB801B0228B1D9DEE723
:10251000001002402DE9F743056815F400650446F4
:102520000ED0C16BB1F5000F5BD0B1F5400F5DD09F
:10253000002966D10430FFF761FF0546002855D019
:1025400023689E036DD5924EB36DD8005BD4B36DF6
:1025500043F08053B365B36D03F080530193019B47
:102560000127DFF83082D8F8003043F48073C8F8D0
:102570000030FEF7F3FA8146D8F80030D90544D58B
:10258000002D49D1D6F8903013F4407314D0226D49
:10259000934211D0D6F89030D6F8902042F4803291
:1025A000C6F89020D6F8902023F4407322F48032AD
:1025B000C6F89020C6F89030DA0709D5FEF7CEFAB3
:1025C00041F288398046D6F890309B0740F1C280AE
:1025D000D6F89030226D23F440731343C6F8903040
:1025E0001AE06B4AD36843F48033D360684AE16BE6
:1025F000D2F8883023F440030B43C2F8883000251A
:102600009EE701259CE70027ABE7FEF7A7FAA0EBC2
:1026100009000228B0D903251FB1B36D23F0805300
:10262000B3652368DF0708D55949206AD1F88820A7
:1026300022F003020243C1F888209E0708D55449BE
:10264000606AD1F8882022F00C020243C1F8882089
:10265000980608D54E49A06AD1F8882022F4406235
:102660000243C1F88820990508D54949606BD1F823
:10267000882022F440220243C1F888205A0508D558
:102680004349A06BD1F8882022F440120243C1F8DC
:1026900088205F0608D53E49E06AD1F8882022F4F8
:1026A00040520243C1F88820DE0508D53849206B26
:1026B000D1F8882022F440320243C1F888209804DF
:1026C0000FD5334A216CD2F8883023F040630B4396
:1026D000B1F1006FC2F8883044D1D36843F480135D
:1026E000D360236859030FD5294A616CD2F888302A
:1026F00023F040630B43B1F1006FC2F888303CD146
:10270000D36843F48013D36023685A0412D5204958
:10271000A26CD1F8883023F040531343B2F1805FAC
:10272000C1F8883006D10221201DFFF767FE00287E
:1027300018BF054623681B0408D5154AE16CD2F87A
:10274000883023F080430B43C2F88830284603B01A
:10275000BDE8F083FEF702FAA0EB080048457FF6DB
:1027600032AF58E7B1F1806FBBD10121201DFFF7D7
:1027700045FE002818BF0546B3E7B1F1806FC3D10D
:102780000121201DFFF73AFE002818BF0546BBE7D0
:102790000010024000700040054BD3F8902022F05A
:1027A0002002C3F890209A6922F400729A6170475F
:1027B00000100240024A136843F00403136070479C
:1027C00000100240036A23F001030362036A70B53C
:1027D000456882690C6822F4803222F07302224339
:1027E0008C6823F002032343124CA04206D0124E01
:1027F000B04203D006F58066B04214D1CE6823F013
:1028000008033343A04223F0040306D00A4CA0423D
:1028100003D004F58064A04205D14C698E6925F48B
:10282000407534432543456082614A6842630362D0
:1028300070BD00BF002C014000400140036A23F43A
:1028400080730362036A426870B5C4690D6824F43A
:10285000803424F073042C438D6823F4007343EA1E
:1028600005230F4DA8420ED1CD6823F4006343EA3F
:10287000052323F480634D698E6922F44052354369
:1028800042EA051205E0074DA842F4D0064DA842E1
:10289000F1D042604A68C461C263036270BD00BF88
:1028A000002C01400040014000440140036A23F431
:1028B00080530362026A30B54468C3690D6823F02F
:1028C000807323F4E64343EA05238D6822F4005223
:1028D00042EA05320A4DA84207D005F5A055A842A4
:1028E00003D005F58065A84204D14D6924F48044E5
:1028F00044EA85144460C3614B680364026230BDDE
:10290000002C0140036A23F480330362026A30B56D
:102910004468436D0D6823F4803323F070032B4328
:102920008D6822F4003242EA05420B4DA84207D0DE
:1029300005F5A055A84203D005F58065A84204D14D
:102940004D6924F4803444EA0524446043654B68AF
:102950008365026230BD00BF002C0140036A23F48E
:1029600080130362026A30B54468436D0D6823F03A
:10297000807323F4E04343EA05238D6822F40012B8
:1029800042EA05520A4DA84207D005F5A055A842D3
:1029900003D005F58065A84204D14D6924F4802454
:1029A00044EA8524446043654B68C365026230BDD8
:1029B000002C0140704770471A4A0368904210B5D6
:1029C00002D0B0F1804F09D14C6823F070039042DF
:1029D00043EA040309D0B0F1804F06D0124A904276
:1029E00003D002F58062904203D1CA6823F4407399
:1029F00013434A6923F08003134303608B68C36267
:102A00000B688362074B984207D003F5A0539842A6
:102A100003D003F58063984201D10B69036301235E
:102A2000436110BD002C01400040014010B5044638
:102A3000A0B190F83D3003F0FF021BB980F83C20B4
:102A4000FFF7B8FF022384F83D302068211DFFF70F
:102A5000B3FF012384F83D30002010BD012010BDDC
:102A600010B50446A0B190F83D3003F0FF021BB949
:102A700080F83C20FFF79FFF022384F83D30206858
:102A8000211DFFF799FF012384F83D30002010BD80
:102A9000012010BD036A23F010030362036A426839
:102AA00070B584690D6824F0807424F4E64444EA27
:102AB00005248D6823F0200343EA05130E4DA84238
:102AC0000ED1CD6823F0800343EA051323F04003C1
:102AD0004D698E6922F44062354342EA850205E081
:102AE000064DA842F4D0064DA842F1D042604A6893
:102AF00084618263036270BD002C0140004001408C
:102B00000044014038B590F83C30012B04464FF0AA
:102B1000020010D00123082A84F83C3084F83D00DC
:102B200043D009D8FAB1042A2ED00123002084F81A
:102B30003D3084F83C0038BD102A47D0142A56D0C6
:102B40000C2AF2D12068FFF7B1FE23680969DA691F
:102B500042F40062DA61DA6922F48062DA61DA69E9
:102B600042EA012230E02068FFF72CFE2368096961
:102B70009A6942F008029A619A6922F004029A6105
:102B80009A690A439A61D0E72068FFF783FF2368B8
:102B900009699A6942F400629A619A6922F4806232
:102BA0009A619A6942EA0122ECE72068FFF746FE43
:102BB00023680969DA6942F00802DA61DA6922F009
:102BC0000402DA61DA690A43DA61AEE72068FFF7E6
:102BD00099FE236809695A6D42F008025A655A6DD8
:102BE00022F004025A655A6D0A435A659DE720682F
:102BF000FFF7B4FE236809695A6D42F400625A6512
:102C00005A6D22F480625A655A6D42EA0122ECE75D
:102C1000036A10B501248C4023EA04030362036AAB
:102C20008A401A43026210BD10B5044600220068B3
:102C3000FFF7EEFF2368144A934207D002F5A05233
:102C4000934203D002F5806293420DD1196A41F29A
:102C50001112114208D1196A40F24442114202BFD6
:102C60005A6C22F400425A64196A41F2111211425C
:102C700008D1196A40F24442114203D11A6822F085
:102C800001021A60002010BD002C014010B504465E
:102C900001220068FFF7BCFF23680A4A934207D06D
:102CA00002F5A052934203D002F58062934203D111
:102CB0005A6C42F400425A641A6842F001021A60E7
:102CC000002010BD002C0140FFF7E0BF036A10B5E3
:102CD00004248C4023EA04030362036A8A401A43F3
:102CE000026210BD10B5044604220068FFF7EEFF33
:102CF00023685A6C42F400425A641A6842F0010296
:102D00001A60002010BD70470268C169F8B504461A
:102D100083680069156803436069034382480B4375
:102D20002840034313605368E06823F4405303438F
:102D300053607E4BA0699A421CBF236A1843936874
:102D400023F4306303439360794B9A4214D103F523
:102D50005843784AD3F8883003F00303B1F5004FA5
:102D6000D35C40F0AA80082B20D8DFE803F0778FEF
:102D7000921F9B1F1F1F9E006F4B9A4207D103F5A6
:102D8000E6336E4AD3F8883003F00C03E6E7674B6E
:102D90009A4240F0C28003F5C833D3F8885005F456
:102DA0004065B5F5806F2AD006D815B301220023FF
:102DB000236663661046F8BDB5F5006F06D0B5F51D
:102DC000406FF3D14FF40040082501E05C48022534
:102DD000626802EB42038342E8D8B0EB023FE5D8D9
:102DE000082D38D8DFE805F00F3726372E3737376C
:102DF0003100FFF7C5FA0028EAD10246D7E7FEF70F
:102E000019FF0425F7E7FFF7BBFA62684FF48071FA
:102E100056080027E1FB006700233046394607F0DB
:102E2000B5FD0022474BA0F540719942BED82368FA
:102E3000D860BCE74448550800230021401941F1FF
:102E40000001ECE7FEF7F6FEDFE750080021002363
:102E500010F50000F3E701220020E3E7FFF790FA06
:102E600061684A0802EB4003B3FBF1F39BB2002216
:102E7000A3F110004FF6EF71884297D823F00F01AD
:102E80002068C3F342030B43C36090E7FFF788FA5F
:102E9000E6E76068430803F1F47303F59043B3FB7E
:102EA000F0F3E3E7FEF7C6FEDAE76068430803F5F0
:102EB0008033F4E701220023DAE7082B30D8DFE87B
:102EC00003F005181B2F242F2F2F2700FFF758FA88
:102ED000626800EB5203B3FBF2F39BB20022A3F152
:102EE00010004FF6EF7188423FF660AF2168CB606B
:102EF0005DE7FFF755FAEBE76068430803F57403F5
:102F000003F51053B3FBF0F3E7E7FEF793FEDFE7BB
:102F10006068430803F50043F4E7B1F5004FC9D0FA
:102F200001220023DBE700BFF369FFEF00800040D0
:102F300000380140DDBF000800440040E1BF000848
:102F40000024F400FFFC0F00000024F4436ADA07B9
:102F500010B506D50168846A4A6822F4003222431B
:102F60004A609C0706D50168C46A4A6822F4803228
:102F700022434A60590706D50168046B4A6822F467
:102F8000802222434A601A0706D50168446B4A68CA
:102F900022F4004222434A60DC0606D50168846BB5
:102FA0008A6822F4805222438A60990606D5016815
:102FB000C46B8A6822F4005222438A605A060FD5F5
:102FC0000168046C4A6822F480122243B4F5801F21
:102FD0004A6005D14A68446C22F4C00222434A6028
:102FE0001B0606D50268816C536823F400230B434B
:102FF000536010BD2DE9F041069D04460F4616466C
:1030000098462168CA6937EA02030CBF01220022F0
:10301000B24202D00020BDE8F0816B1CF2D09DB915
:1030200023681A6822F4D0721A609A6822F00102AA
:103030009A60202384F8713084F87230002384F879
:1030400070300320BDE8F081FDF788FDA0EB08009B
:103050008542D6D2E4E773B5044600264667FDF7FD
:103060007DFD23681B681A07054617D423681B6873
:103070005B070AD56FF07E43009300222B464FF486
:1030800080012046FFF7B6FFA0B92023002084F876
:10309000713084F8700084F872300CE06FF07E4379
:1030A0000093324603464FF400112046FFF7A2FF7B
:1030B0000028DBD0032002B070BD10B5044660B319
:1030C00090F8713003F0FF021BB980F87020FFF711
:1030D0001AFE2268242384F87130136823F0010358
:1030E00013602046FFF710FE012816D0636A13B163
:1030F0002046FFF72BFF23685A6822F490425A605B
:103100009A6822F02A029A601A6842F00102204668
:103110001A60BDE81040FFF79EBF012010BD90F877
:103120007030012B0FD00268242380F871301368AF
:1031300043F002031360202380F87130002380F8ED
:103140007030184670470220704790F87030012B9D
:103150000FD00268242380F87130936843F4000391
:103160009360202380F87130002380F87030184677
:1031700070470220704790F87030012B0FD0026822
:10318000242380F87130136823F002031360202396
:1031900080F87130002380F87030184670470220A4
:1031A000704790F87030012B0FD00268242380F80C
:1031B0007130936823F400039360202380F871300A
:1031C000002380F8703018467047022070470000D6
:1031D0000F49D1F8883043F47003C1F888300D4BA3
:1031E0001A68002042F001021A6098601A6822F002
:1031F000A85222F410221A604FF48052DA601A6842
:1032000022F480221A609861034B8B60704700BFE4
:1032100000ED00E0001002400000000870B5ACB006
:103220001422002101A801F061F94422002106A81E
:1032300001F05CF95422002117A801F057F9042489
:10324000012606A806940896FEF75CFD054610B117
:1032500000202CB070BDFFF79FFA13230693B02314
:103260000E9302231093062312932823139306A888
:103270000723079509950D950C96119614931594AF
:103280001694FEF73FFD05460028E1D1FFF792FABC
:103290004FF40053179317A84FF040632793FFF79D
:1032A00039F90F2301932146032301A802930395C3
:1032B00004950595FEF7AEFFB0FA80F04009C8E727
:1032C00008B5FFF7ABFF10B9014800F0DDFC08BD01
:1032D000EEBF0008264A274913681B0754BFD2F8DF
:1032E00094301368906854BFC3F30323C3F30313EC
:1032F00000F00C0010B551F823401F490C2835D8B8
:10330000DFE800F0343434340734343412343434E5
:1033100014001A4B0B609368194AC3F30313D25C71
:103320000B68D3400B6010BD164BF3E7D068D36831
:1033300000F00300C3F30213022803F1010304D0D9
:10334000032811D0B4FBF3F302E00C48B0FBF3F315
:10335000D468D068C0F34160C4F3062401306343ED
:103360004000B3FBF0F3D5E70648EFE70C60D2E787
:10337000001002401CC00008940200200024F40049
:1033800002C0000800127A004FF08043064A136022
:103390001A69910707D5DA68920704D56FF002021F
:1033A0001A6100F03DBB704738100020004870479C
:1033B0004CC0000830B589B001A903A8FFF700F898
:1033C000FEF7DEFF1F4B01909A6D1F4C42F0010289
:1033D0009A659A6D02F001020292029A9A6B42F08B
:1033E00001029A639A6B22F001029A63069A4FF0E7
:1033F000804323604FF0FF33E360144BFAB9B0FB16
:10340000F3F00138002560600F482561A560656113
:10341000A561FFF70BFB0E4B0E4A9B680A48C3F8E9
:10342000B0200D4B4FF080521A602946FFF74CFC3C
:103430002268D36823F00203D36009B030BD400096
:10344000DDE700BF001002403810002040420F00AE
:1034500000ED00E08933000800E100E00448026864
:10346000D36823F00203D3600021FFF72DBC00BF17
:10347000381000204FF08043586A7047054B1B6896
:103480006FF0020258631A61DA6842F00202DA60F1
:10349000704700BF38100020064B1B686FF0020217
:1034A0001A615A6942F002025A61DA6842F0020275
:1034B000DA60704738100020034B1A68D36823F095
:1034C0000203D360704700BF38100020024B1B6816
:1034D0006FF002021A6170473810002008B5002111
:1034E0000348FFF7A1FBBDE80840FFF7E5BF00BFB9
:1034F0003810002070B50E4604461546FDF7FAFA5E
:10350000013609D020460021FDF71AFB2946204646
:10351000BDE87040FDF710BB70BD38B504460D46E0
:1035200003685AB18268136020460121FDF708FB49
:1035300029462046BDE83840FDF7FEBAC268F2E7EA
:103540000022FFF7D7BF70B50E4604461546FDF7BB
:10355000D1FA013606D02A4620460021BDE8704047
:10356000FFF7DBBF70BD0022FFF7EDBF13B50446C8
:1035700001300FD102B010BD9C420AD120468968AB
:10358000FDF7ACFE0021204602B0BDE81040FDF77B
:1035900037BF0C31B1F900305A1CEDD10023009334
:1035A00022460249024800F08FFB00BFA3C000087A
:1035B00030010180884207B502460AD0431C08D07A
:1035C000013105D0002300930449054800F07CFB3D
:1035D0000146084603B05DF804FB00BF72C0000856
:1035E00030010180B1F900305A1C01D118467047F2
:1035F000834201D1486870470C31F3E7431C07B59B
:103600000AD0FFF7EFFF431C06D1002302460093C8
:103610000349044800F058FB03B05DF804FB00BF09
:1036200083C0000830010180B1F900305A1C01D17B
:1036300018467047834201D1886870470C31F3E720
:10364000431C07B50AD0FFF7EFFF431C06D1002348
:10365000024600930349044800F036FB03B05DF8CE
:1036600004FB00BF54C00008300101802DE9F74F72
:10367000D0F804A09AF83A300446002B46D10368EB
:103680005B68984763681B6A98423FD0DAF820303D
:10369000DAF80840CAF82000A0EB0308DAF80C308A
:1036A000314808EA0308844246464FF0000727D015
:1036B000DAE90A239AF83BB0A8FB0089CDE9002398
:1036C0000025BBF1000F2BD05A464046494606F074
:1036D00091FCDDE9002312EB080243EB090390465D
:1036E0005A46994606460F4606F090FCB8EB000095
:1036F00069EB0101A94208BFA0420AD2CAE90A0146
:10370000DAE90C23B6185F41CAE90C6703B0BDE8DB
:10371000F08F013647F10007001B61EB0501EDE773
:1037200022462B464046494607F030F922460646D7
:103730000F46404649462B4607F028F9DDE9008947
:1037400018EB020849EB0309A94508BFA04502D2BE
:10375000CAE90A89D4E7013647F10007B8EB040843
:1037600069EB0509F4E700BF40420F00824206D929
:103770008A420BD9884294BF0020012070478842BA
:1037800006D98A428CBF0020012070470120704773
:10379000002070472DE9F14F476897F83A30064608
:1037A000002B60D197F83930002B5CD1FFF75EFF1A
:1037B00075686B68002B59D0D5E90C89D3E90001F5
:1037C000894508BF804505D333685B6901B0BDE812
:1037D000F04F1847D5E90623B0EB080861EB09095B
:1037E0004B4508BF42452C6906D3AB68254A934236
:1037F0000FD1444528BF44462A6A3B6A1444EA680C
:103800001440A34221D14FF484721F491F4800F095
:1038100011F995F83B20DFF878A04FF0000B7AB152
:103820004046494606F0F2FB10EB0A0041EB0B0163
:10383000144A002307F0AAF8844228BF0446DBE7B5
:10384000A3FB080103FB0911EEE7336820461B695F
:10385000984733685B68984722460146386AFFF705
:1038600085FF0028B0D101B0BDE8F08F3B69386A10
:10387000FA68184433681B69104001B0BDE8F04F86
:10388000184700BF40420F00B4C00008FEC0000847
:103890003F420F002DE9F04F436893F8382085B080
:1038A0000546002A66D193F83A30002B62D10368AE
:1038B0001B6898472B68DB699847076827B92D2252
:1038C0002E492F4800F0B6F81F23012202FA03F117
:1038D0008F425FFA83FB02D0013BF7D19B46D0F8C1
:1038E00004A0AAF104031C2B01D93B22E8E7072618
:1038F00017F1FF3006FA03F6224C4FF0000343F1B4
:10390000FF313A46C4FB060107F040F86C682A68AC
:1039100000232360636052680393CDE90001904760
:1039200020626C684FF000084FF000095246C4E96D
:103930000A89A76084F83BB00120002106F066FBED
:10394000DDE90023C4E90623039B84F8393084F8B9
:103950003A3001380123E06026612846C4E90C8929
:1039600084F83830FFF782FE284605B0BDE8F04FF6
:10397000FFF710BF05B0BDE8F08F00BFB4C000086E
:10398000DBBF000840420F0070B5044600F06EF83F
:103990002368DB689847636893F83A201AB1BDE85A
:1039A000704000F079B8012283F8392063685B68C1
:1039B000A3B12046FFF75AFE65686E68D5E90C0191
:1039C000D6E90023994208BF904207D3F3686B60A1
:1039D0002B68002BEAD0B0689847E7E763680022BD
:1039E00083F839202046FFF7D5FED8E738B50446DE
:1039F000FFF750FF00F03AF82046FFF737FE636804
:103A0000D3E90C4500F048F82046294638BD08B5F2
:103A1000FFF7ECFF08BD00000048704724C1000814
:103A2000024B1B680BB102481847704798020020F0
:103A300024C1000807B504460D46164600F016F8E6
:103A400000962B4600222146014800F03DF900BFB8
:103A50004401FF80EFF31080C04300F00100704785
:103A6000EFF30580003018BF0120704710B5074CF8
:103A70002368013304D1512205490648FFF7DAFFD4
:103A800000F06CF923680133236010BD680D00203D
:103A90004CC1000899C10008054B1A6832B11A6878
:103AA000013A1A601B680BB900F06AB9704700BF91
:103AB000680D00200122D0E84F3FC0E8412F0029C7
:103AC000F9D1D8B2003018BF01207047D0E85F3F6D
:103AD0000B449BB2C0E8523F002AF7D1184670470A
:103AE00008B50B48FFF7E6FF28B1FFF7BFFFBFF3AC
:103AF0004F8F20BFFDE7FFF7B3FF08B1FDF746F892
:103B0000FFF7A8FF0028F9D00120FDF76DFB00BFEB
:103B1000AC0D002070B5164C8EB034EA200428BFDE
:103B200004460D4616460021342201A800F0DEFCB2
:103B3000019402960395FFF799FF0E4A136801332B
:103B4000012B136004D1342201A90B4800F0C8FBFB
:103B5000342201A9094800F0C3FB094B1B680BB1D3
:103B600006489847FFF798FF00200EB070BD00BFD1
:103B70000101FF806C0D0020780D0020B00D0020A9
:103B8000700D00202DE9F0412E4C0E462168C1F346
:103B90004173032B0CBF4D428DB2C1F307438046E6
:103BA000174629482A46FDF749F86FF498731D44D3
:103BB000132D0FD8DFE805F00A2D3033363C393F9E
:103BC0000E0E0E0E0E0E0E0E0E0E0E42A1681F48A9
:103BD000FDF734F84046FDF707F861681C48FDF72B
:103BE0002DF84EB11B48FCF7FFFF3046FCF7FCFFF9
:103BF00039461948FDF722F8A1681848FDF71EF864
:103C000021681748FDF71AF81648BDE8F041FDF79E
:103C100015B8A1681448DBE7A1681448D8E7A16883
:103C20001348D5E7A1681348D2E7A1681248CFE747
:103C3000A1681248CCE7A1681148C9E71148FCF710
:103C4000FDFFC7E7B00D0020DFC1000830C200084B
:103C5000D8C20008E9C20008F1C20008F5C2000895
:103C600009C3000855C3000846C2000856C2000830
:103C700065C2000878C200088CC20008A0C2000813
:103C8000AFC20008C5C200080FB407B50B4875469F
:103C9000FFF710FF044670B901462A460848FFF7AF
:103CA00039FF214607482246FFF76CFF05A9049813
:103CB0000191FCF7A9FFFFF713FF00BF740D00206F
:103CC0000001FF80CAC1000880B506460948F046D9
:103CD0000C4617461D46FFF7EDFE48B942463946E9
:103CE0003046FFF717FF029A29462046FFF74AFFA2
:103CF000FFF7F6FE740D002013B50D4CFFF7B6FE6E
:103D000022884FF6FF739A4208D1FFF7C5FE0023C1
:103D10002288009307490848FFF7D6FF0121204673
:103D2000FFF7D4FE02B0BDE81040FFF7B5BE00BFFC
:103D3000E40D00206FC300082301048070B5044621
:103D4000FFF76AFE0646FFF762FE05463046FFF7BC
:103D50005EFE401BA042F9D370BD0000EFF310835C
:103D6000DB4372B6044A117829B9044903F0010310
:103D70000B70012313707047E70D0020E60D002043
:103D800008B5EFF31083DB0704D436220549064853
:103D9000FFF750FE054B00221A70054B1B7803B14C
:103DA00062B608BD94C30008E8C30008E70D002010
:103DB000E60D002038B5084C4FF41E652846E56036
:103DC00000F02EFAA06020B10023C0E9005360602B
:103DD00038BDE060606038BDE80D0020014B186818
:103DE000704700BF9C020020B1F90C202DE9F04182
:103DF0000D461107804647D46B6842F40062002BE1
:103E0000AA815DDDAC6A002C57D00023D8F8006091
:103E1000C8F8003093B212F4805255D10123E969F9
:103E20004046A047431C66D0AB89AC6A5F0705D506
:103E30006A682B6B801A0BB1EB6BC01AE9690246FA
:103E400000234046A047411C40D1D8F80030002B49
:103E50003CD01D2B01D0162B55D1AB892A692A6085
:103E600023F400630022AB816A60296BC8F800600C
:103E700019B305F14003994202D0404606F006FF0F
:103E800000202863BDE8F0812F69B7B193B22E6896
:103E90002F609A070CBF6B690023F61BAB600AE02A
:103EA0006C6AE96933463A464046A047041EA6EBD1
:103EB0000406274417DD002EF2DC0020BDE8F08167
:103EC000EB6B002B9EDCF8E7286DAFE7B5F90C3003
:103ED0002A692A6023F400630022AB81DB046A6054
:103EE000C3D52865C1E7AB8943F04003AB814FF0F0
:103EF000FF30BDE8F081D8F80030002B94D01D2BA6
:103F000006D0162B04D0AB8943F04003AB81D5E734
:103F1000C8F80060D1E700BF38B50C46054608B1C7
:103F2000836BA3B1B4F90C00B8B1636EDB0701D4A5
:103F3000810515D528462146FFF756FF636EDA073F
:103F4000054602D4A3899B050ED5284638BD00F04E
:103F500051F8B4F90C000028E7D10546284638BDD1
:103F6000A06D00F0DFF8E5E7A06D00F0DDF8284671
:103F700038BD00BF014618B1044B1868FFF7CCBF2D
:103F8000034B0449186800F081B800BF9C02002070
:103F900004C40008193F000810B500230446C0E916
:103FA0000033C0E904338181C28183604366836149
:103FB000194608225C3000F099FA07480749084A78
:103FC000084BE362C4E90740C4E9091204F1580050
:103FD000BDE8104000F0A2B88D450008B1450008CA
:103FE000F145000811460008014900F04FB800BF34
:103FF0005575000810B50446114800F093F8A26BFF
:10400000C2B904F53B730F48C4F8E0220321C4E9A8
:10401000B913E06304216068FFF7BEFFA0680122C6
:104020000921FFF7B9FFE06802221221FFF7B4FF70
:104030000123A363BDE81040014800F075B800BF3C
:104040008C100020E93F0008014800F06BB800BF69
:10405000A0100020014800F067B800BFA0100020A9
:1040600038B50C46084D03461146204600221C4632
:104070002A60FDF7DAF8431C00D038BD2B68002B0E
:10408000FBD0236038BD00BFA41000202DE9F84309
:104090000746884600F538764FF00009D6E9015406
:1040A000013D11D4A389012B05F1FF3508D9B4F9DD
:1040B0000E30013304D021463846C04749EA000992
:1040C0006B1C04F16804EDD13668002EE6D1484639
:1040D000BDE8F88370B50D4E0D4D761BB61006D0B9
:1040E000002455F8043B01349847A642F9D1094E03
:1040F000094D761B07F00EFCB61006D0002455F8CB
:10410000043B01349847A642F9D170BD480C002009
:10411000480C0020540C0020480C0020704700BFC1
:10412000704700BF704700BF704700BF70B50C46B6
:10413000B1F90E10002996B015461E4614DB6A46EA
:10414000FFF78EFF00280FDB019A02F47042A2F500
:104150000052B2FA82F252094FF480634FF40060C9
:1041600032602B6016B070BDA189002311F0800071
:10417000336004D0402218462A6016B070BD4FF458
:1041800080632B6016B070BD70B58B899D0782B0BF
:104190000C4607D501F143030122C1E904320B604B
:1041A00002B070BD01AB6A460646FFF7BFFF00993B
:1041B0000546304606F066FD80B1B4F90C20174B79
:1041C000F3630199206042F08003009AA381C4E95F
:1041D000040299B92B43A38102B070BDB4F90C302D
:1041E0009A05DDD423F0030304F1430243F00203F4
:1041F0000121C4E90421A3812260D1E7B4F90E10A2
:10420000304603F00DFA10B9B4F90C30E2E7A28998
:1042100022F0030242F0010213B2DBE7E93F00089B
:10422000024B0146186806F02DBD00BF9C0200201D
:10423000024B0146186806F029BD00BF9C02002011
:1042400001F0FF01102A2BDB10F0070F08D010F847
:10425000013B013A8B422DD010F0070F42B3F6D14B
:10426000F0B441EA012141EA014122F007047FF064
:1042700000070023F0E80256083C85EA010586EABB
:10428000010685FA47F5A3FA87F586FA47F6A5FAF7
:1042900087F68EB9EED1F0BC01F0FF0102F0070203
:1042A00032B110F8013B013A83EA010313B1F8D1AE
:1042B0000020704701387047002D06BF354603388F
:1042C000073815F0010F07D1013015F4807F02BFC8
:1042D000013015F4C03F0130F0BC0138704700BF19
:1042E000844641EA000313F003036DD1403A41D301
:1042F00051F8043B40F8043B51F8043B40F8043BC0
:1043000051F8043B40F8043B51F8043B40F8043BAF
:1043100051F8043B40F8043B51F8043B40F8043B9F
:1043200051F8043B40F8043B51F8043B40F8043B8F
:1043300051F8043B40F8043B51F8043B40F8043B7F
:1043400051F8043B40F8043B51F8043B40F8043B6F
:1043500051F8043B40F8043B51F8043B40F8043B5F
:1043600051F8043B40F8043B51F8043B40F8043B4F
:10437000403ABDD2303211D351F8043B40F8043BEF
:1043800051F8043B40F8043B51F8043B40F8043B2F
:1043900051F8043B40F8043B103AEDD20C3205D3FF
:1043A00051F8043B40F8043B043AF9D2043208D0F7
:1043B000D2071CBF11F8013B00F8013B01D30B8869
:1043C00003806046704700BF082A13D38B078DD047
:1043D00010F003038AD0C3F10403D21ADB071CBF19
:1043E00011F8013B00F8013B80D331F8023B20F883
:1043F000023B7BE7043AD9D3013A11F8013B00F8BC
:10440000013BF9D20B7803704B7843708B78837043
:10441000604670478842F0B40DD98B1883420AD9A0
:10442000841832B1224613F8014D02F8014D994229
:10443000F9D1F0BC70470F2A0ED80346541E002A4B
:10444000F7D001340C44013B11F8012B03F8012F84
:10445000A142F9D1F0BC704740EA01039B073FD16C
:10446000A2F1100323F00F0401F1200727441B09D8
:1044700001F1100400F1100554F8106C45F8106CAF
:1044800054F80C6C45F80C6C54F8086C45F8086C42
:1044900054F8046C45F8046C1034BC4205F1100566
:1044A000EAD1013312F00C0F01EB031102F00F04FB
:1044B00000EB031317D0043C24F0030CA5089C4424
:1044C0001C1F0E4656F8047B44F8047F6445F9D15E
:1044D0006C1C03EB840301EB840102F00302ADE7E3
:1044E000541E0346ADE72246A8E700BFF0B4860796
:1044F00046D0541E002A3CD0CAB2034601E0013C1B
:1045000037D303F8012B9D07F9D1032C2AD9CDB25B
:1045100045EA05250F2C45EA054534D9A4F11002DA
:1045200022F00F0C03F120071609674403F1100273
:1045300042E9045542E902551032BA42F8D1721CE0
:1045400014F00C0F03EB021204F00F0613D0331F0C
:1045500023F003030433134442F8045B9342FBD17A
:1045600006F003042CB1CAB21C4403F8012B9C4290
:10457000FBD1F0BC704734461346002CF3D1F8E76A
:1045800014460346C1E71A462646E0E710B50C4636
:10459000B1F90E1003F0B4FB002803DB236D0344D4
:1045A000236510BDA38923F48053A38110BD00BFF0
:1045B0002DE9F041B1F90C509846EB050C46174631
:1045C00006460BD425F48055B4F90E10A581434658
:1045D0003A463046BDE8F04101F026BFB1F90E1071
:1045E0000223002203F032F8B4F90C50EAE700BFCE
:1045F00010B50C46B1F90E1003F028F8A389421C3F
:104600000EBF23F4805343F480532065A38110BD73
:10461000B1F90E1001F086BF00000000000000009C
:10462000000000000000000000000000000000008A
:10463000000000000000000000000000000000007A
:1046400090F800F06DE9024520F007016FF0000CD2
:1046500010F0070491F820F040F049804FF000047A
:104660006FF00700D1E9002391F840F000F1080055
:1046700082FA4CF2A4FA8CF283FA4CF3A2FA8CF38D
:104680004BBBD1E9022382FA4CF200F10800A4FAF4
:104690008CF283FA4CF3A2FA8CF3E3B9D1E9042348
:1046A00082FA4CF200F10800A4FA8CF283FA4CF37F
:1046B000A2FA8CF37BB9D1E9062301F1200182FA39
:1046C0004CF200F10800A4FA8CF283FA4CF3A2FA3F
:1046D0008CF3002BC6D0002A04BF04301A4612BA4D
:1046E000B2FA82F2FDE8024500EBD2007047D1E950
:1046F000002304F00305C4F100004FEAC50514F0DF
:10470000040F91F840F00CFA05F562EA05021CBFAF
:1047100063EA050362464FF00004A9E700000000C9
:104720002DE9F04F2DED068BD3B01C468B46174676
:10473000814602F087FF03680C9418461593FFF733
:104740007FFF1490B9F1000F04D0D9F83830002B56
:1047500000F00A82DBF86430BBF90C2013F0010F83
:1047600093B202D1910540F1D5869E040AD4DBF8BC
:10477000641042F4005321F40051ABF80C30CBF834
:1047800064109BB21D0740F1CA80DBF81020002A9C
:1047900000F0C58003F01A020A2A00F0CE80002340
:1047A0009FED837BCDE92733CDE91733CDE919336D
:1047B00010931693089329AB269398463B788DED7A
:1047C000127B08EE10BA002B00F078813C4604E022
:1047D00014F8013F002B00F0C980252BF8D1E51B10
:1047E00040F0C7802378002B00F0688100230993F4
:1047F0008DF87B300693661C4FF0FF336478079387
:104800002B254FF0200A0136A4F120035A2B00F289
:10481000D380DFE813F07802D100D1007202D1001A
:10482000D100D1006A00D100D10010022102D100D4
:104830001B025802D10052025B005B005B005B0070
:104840005B005B005B005B005B00D100D100D1002E
:10485000D100D100D100D1005D01D100B30190029F
:104860005D015D015D01D100D100D100D1008A025E
:10487000D100D100E902D100D100D100C101D100A5
:104880002502D100D1002008D100D100D100D100F3
:10489000D100D100D100D1005D01D100B301E70109
:1048A0005D015D015D01FE02E701AD01D100810204
:1048B000D1001B031D080703AD01D100C101820017
:1048C0001308D100D100F207D1008200A4F1300317
:1048D000002216F8014B02EB820203EB4202A4F124
:1048E0003003092BF5D909928EE7484602F0AAFE5B
:1048F000436819931846FFF7A3FE034648461C4633
:104900001A9302F09FFE8268179234B1179B23B16D
:10491000179B1B78002B41F0D880347873E75946F9
:10492000484601F097FD002841F07283BBF80C3037
:1049300003F01A020A2A7FF432AFBBF90E20002AD4
:10494000FFF62DAFDBF86420D20702D49E0541F1BB
:104950008D8123463A465946484601F0DBFC0890D3
:10496000089853B0BDEC068BBDE8F08FE51B00F056
:10497000A580DDE9273201332A44072BCDE9273210
:10498000C8F80070C8F8045006DC08F10808089A56
:1049900023782A44089226E718EE101A26AA4846D9
:1049A00005F008F8002841F04C840DF1A408EEE76A
:1049B00000000000000000000D96002C7ED00023B7
:1049C0001A464FF0010A8DF8E4408DF87B300B92C7
:1049D00007920E9211920F92CDF828A039AF069B44
:1049E000069913F0020318BF0AF1020A11F0840BB2
:1049F00005D10999A1EB0A06002E00F3D483289D66
:104A000072B1279A013201350DF17B000121072A8D
:104A1000CDE92725C8E9000100F3058408F108085D
:104A20006BB1279B013302351FA90222072BCDE969
:104A30002735C8E9001200F3068408F10808BBF125
:104A4000800F00F09682079B0A9A9E1A002E00F3B0
:104A5000D882069BDE0500F13082279B0A9AC8F8AF
:104A6000007001331544072B2895C8F804202793BC
:104A700000F32D8308F10808069B5C0705D5099B08
:104A8000A3EB0A04002C00F3EC83DDE90832524565
:104A9000ACBF9B1853440893002D40F0EF820023D5
:104AA00027930B9B1BB10B99484606F0EFF80DF1CD
:104AB000A4080D9F3B78002B7FF488AE289B18EE4E
:104AC00010BA002B40F0F7870023279300F08FBC2B
:104AD0000C9B0D96073323F00703B3EC027B8DED9F
:104AE000127BDDE912560C9326F0004309EE903A52
:104AF00009EE105A5BEC19ABB84B504659464FF0D3
:104B0000FF3205F0E5FE002840F05285B34B4FF030
:104B1000FF325046594605F0BDFE002840F048855A
:104B2000002200232846314605F0AAFE002841F065
:104B300096819DF87B20AA4FAA4B069800214FF042
:104B4000030A20F080000B910690472CC8BF1F4637
:104B5000CDF828A007910E9111910F91002A3FF4F2
:104B60003EAF0AF1010A3AE74846FFF743FAF1E59A
:104B7000069B347843F02003069344E60C9B0D9685
:104B800053F8042B8DF8E42000210A464FF0010A67
:104B90000C938DF87B101AE70C9D0D9655F8047B4D
:104BA00000268DF87B60002F00F08386079A13465D
:104BB000013300F02D8731463846FFF741FB0B905B
:104BC000002801F0E0810B9B0796DA1B0A9233461E
:104BD00022EAE27A0C959DF87B200B930E931193B9
:104BE0000F93BBE7069B0D969D0640F1AD800C9B95
:104BF000073323F007031946F1E802230C9192468C
:104C00009B46002A73F10003C0F2AF80079B01337B
:104C100000F0AD85069B23F080055AEA0B0340F0B7
:104C2000B182079B002B40F0B482069500230793C6
:104C30000A9352AFC3E00C9B53F8042B0992002A4D
:104C400080F27184099A0C9352420992069B34783F
:104C500043F004030693D6E534788DF87B50D2E513
:104C6000069B0D9643F01005AF0640F129840C9B7E
:104C7000073323F00703F3E802AB0C930123002270
:104C80008DF87B20079A114601317DD025F08001F7
:104C900006915AEA0B0140F07182002A40F08586A5
:104CA000002BC3D115F001030A9300F06B8430236D
:104CB0008DF847310DF2471781E0069B347843F0B9
:104CC000800306939FE5324612F8014B2A2C01F02F
:104CD000F082A4F13003092B164698BF002201F29E
:104CE000908116F8014B02EB820203EB4202A4F121
:104CF0003003092BF5D9079286E5069B347843F0FB
:104D0000010306937FE59DF87B30002B7FF405AE11
:104D100034788DF87BA076E53478069B6C2C00F017
:104D2000C18543F0100306936DE5069B347843F08C
:104D30000803069367E5069B0D9643F01003069360
:104D4000069B9D063FF553AF069BD80640F1F684BF
:104D50000C9B53F8042B0C934FEAE27B5B46002A32
:104D600073F100039246BFF651AF079A069DDAF140
:104D7000000A11464FF02D036BEB4B0B01318DF800
:104D80007B304FF0010381D1012B00F0FB81022B1E
:104D900052AF73D116984FEA1A130AF00F0143EA83
:104DA0000B734FEA1B129A469346435C07F8013D8A
:104DB0005AEA0B03EFD152ABDB1B06950A93002393
:104DC00007990B930E9311930F930A9B9DF87B20E9
:104DD0008B42B8BF0B469A46C0E600BFFFFFEF7F8D
:104DE00008C400080CC40008069B0D9643F010038D
:104DF0000693069B990640F177830C9B073323F0BB
:104E00000703F3E802AB0C93069B23F480650023B1
:104E100035E73478069B682C00F03D8543F040036D
:104E20000693F0E40C9B0D9647F6300153F8042BE3
:104E3000ADF87C1006990C93CD4B169341F002050A
:104E400092464FF0000B0223782418E7069B0D963C
:104E50009E0600F1A183069BDD0600F1AC85069B52
:104E60005C0600F14886069B980540F1A4850C9BE2
:104E7000089953F8042B0C9311701AE64FEADA02E2
:104E800042EA4B724FEADB010AF007038B46924677
:104E900030335AEA0B013A4607F8013DEED1E907F3
:104EA00089D5302B87D03023023A07F8013C52AB2A
:104EB0009B1A06950A93174681E7652C40F31381E8
:104EC000DDE912010022002305F0D0FC002800F0EB
:104ED0000482279BA74AC8F800200133013501222C
:104EE000072BCDE92735C8F8042000F3408508F1E9
:104EF0000808209B109A934280F20783279B159AFB
:104F0000C8F80020149AC8F8042001331544072B70
:104F10002895279300F3B18408F10808109B5C1EC4
:104F2000002C7FF7A9AD102C279BDFF84CB240F383
:104F30002F855F46102618EE10BA05E008F1080824
:104F4000103C102C40F3238501331035072BCDE99D
:104F50002735C8E90076F1DD26AA5946484604F00F
:104F600029FD002840F03E82DDE927350DF1A40837
:104F7000E6E7099BA3EB0A06002E7FF764AD102E2F
:104F8000279ADFF8F4B129DD58462946A34618EEE2
:104F9000105A1023044604E0103E102E08F10808B1
:104FA00018DD01321031072ACDE92721C8E9004375
:104FB000F2DD26AA2946484604F0FCFC002840F011
:104FC0001082103E102EDDE927210DF1A4084FF0CC
:104FD0001003E6DC23460D465C469B460132354411
:104FE000072ACDE92725C8F800B0C8F8046000F307
:104FF0003684079B0A9A9E1A002E08F108087FF74C
:1050000028AD102E279ADFF870B129DD58462946C1
:10501000A34618EE105A1023044604E0103E102E4A
:1050200008F1080818DD01321031072ACDE92721DF
:10503000C8E90043F2DD26AA2946484604F0BAFC36
:10504000002840F0CE81103E102EDDE927210DF121
:10505000A4084FF01003E6DC23460D465C469B4651
:1050600001323544072ACDE92725C8F800B0C8F831
:10507000046000F3178208F10808EAE418EE101A39
:1050800026AA484604F096FC00283FF408AD18EE26
:1050900010BAA7E1279B1599C8F800101499C8F811
:1050A000041001330D44072B2895279300F3CE8578
:1050B00008F10808002AC0F2C587109A0133154488
:1050C000072BCDE92735C8E900727FF7D3AC18EE7E
:1050D000101A26AA484604F06DFC0028D7D1289D56
:1050E0000DF1A408C8E4109B279C012B40F392818A
:1050F000013401350123072CCDE92745C8F800709C
:10510000C8F8043000F3F08308F10808149B159ADE
:1051100001341D44072CCDE92745C8E9002300F3DD
:10512000F18308F108080023DDE91201002205F0EF
:105130009DFB109B002840F08B81013B013401371F
:105140001D44072CCDE92745C8F80070C8F8043085
:1051500000F3708108F10808189A0134154422AB55
:10516000072CCDE92745C8E900327FF783ACAEE7CD
:1051700018C4000848C400085CC40008012B069D40
:105180007FF405AEBBF1000F08BFBAF10A0F80F043
:10519000F6820AF1300A01238DF847A106950A9399
:1051A0000DF247170BE6102EDDE9272129DD1B93B1
:1051B000102543460846B846274618EE104A04E034
:1051C000103E102E03F1080316DD0132C4491030E1
:1051D000072ACDE92720C3E90015F1DD26AA2146DB
:1051E000484604F0E7FB002840F0B383103E102E41
:1051F000DDE9272029ABE8DC3C46474698461B9B67
:1052000001460132B648C8F800007518072ACDE9F2
:105210002725C8F8046000F38A839DF87B2008F1F5
:105220000808FFF7EDBB18EE101A26AA48461B9394
:1052300004F0C0FB00287FF42AAF289D1B9B0DF1D2
:10524000A408FFF7EDBB18EE101A26AA484604F092
:10525000B1FB00287FF41BAF289D0DF1A408FFF7D8
:10526000EEBB102C279B20DD18EE107A102604E0F0
:10527000103C102C08F1080817DD0133984A10354E
:10528000072BCDE92735C8E90026F1DD26AA3946E6
:10529000484604F08FFB002840F07783103C102C28
:1052A000DDE927350DF1A408E7DC01338C4AC8F8A5
:1052B00000202544072BCDE92735C8F804407FF7A7
:1052C000E4AB18EE101A26AA484604F073FB002837
:1052D0007FF4DDAE289DFFF7D8BB209A002A40F36B
:1052E0002681DDE90F329342A8BF1346002B1C46EE
:1052F0000DDD279BC8F8007001332544072B289546
:10530000C8F80440279300F3D58508F108080F9BDF
:10531000002CA8BF1B1B002B1C4600F354830F9BC3
:105320003B449B46069B590500F10085209B109A43
:10533000934203DB069AD20740F1CE83279A159950
:10534000C8F800101499C8F8041001320D44072A57
:105350002895279200F3E68508F10808109ABC18F2
:10536000A4EB0B04D31A9C42A8BF1C46002C0DDDF5
:10537000279AC8F800B001322544072A2895C8F8B2
:105380000440279200F32C8608F10808002CACBFDB
:105390001C1B1C46002C7FF76FAB102C279BDFF8E3
:1053A00044B140F3F5825F46102618EE10BA05E0CE
:1053B00008F10808103C102C40F3E9820133103545
:1053C000072BCDE92735C8E90076F1DD26AA594635
:1053D000484604F0EFFA28B9DDE927350DF1A408B5
:1053E000E8E7AB460B9911B1484605F04FFCDBF8F6
:1053F000643013F0010FBBF80C3002D1980540F176
:105400008F82590600F11086089853B0BDEC068BC8
:10541000BDE8F08F069BDE073FF56AAE013401352B
:105420000123072CCDE92745C8F80070C8F80430DF
:105430007FF790AE18EE101A26AA484604F0BAFA82
:1054400000287FF424AEDDE927450DF1A40883E6AA
:105450005E1E002E7FF780AE102EDFF888B040F37E
:10546000E282CDF81CA0102718EE10AA05E008F182
:105470000808103E102E40F3D48201341035072C5A
:10548000CDE92745C8E900B7F1DD26AA51464846CF
:1054900004F090FA002840F0B885DDE927450DF1C9
:1054A000A408E6E718EE101A26AA484604F082FA85
:1054B00000287FF4ECAD289D0DF1A408FFF7C9BAD0
:1054C0000C9AEE0652F8041B0C924FF001035ED4C6
:1054D000680659D51FFA81FA4FF0000BFFF7CFBBD2
:1054E0004CC400085CC40008069BDA0600F1368153
:1054F000069B5B0640F1AF820C9B53F8042B0C9388
:105500001FFA82FA4FF0000B7EE4069BD8077FF566
:10551000B3AAF3E4DBF85800FEF704FEBBF90C2055
:1055200093B2FFF722B934780C93FFF76CB9279B3D
:10553000C449C8F80010013301350121072BCDE91A
:105540002735C8F8041000F3978408F10808002AEA
:105550007FF4A0AD069B109A03F0010313433FF4C0
:105560008BAA279B159AC8F80020149AC8F8042023
:1055700001331544072B2895279300F3678308F11F
:1055800008089AE552AF1AE4AA0500F1AE828A46ED
:105590004FF0000BFFF773BB0C9B53F8041B0C93ED
:1055A000089BDD171A462B46C1E90023FFF781BA95
:1055B000DDE912010B46024605F08AF90146002892
:1055C00040F02F86612C00F0A285412C00F0A282D1
:1055D000079B24F020065A1C0A9600F0C385472E2C
:1055E00000F09A85DDE91201069A002942F48072E2
:1055F0000E924FF00003C0F2E48541EC1A0B1B93AE
:105600000B93462E00F09D84452E40F06D84079B41
:1056100024A85D1C21A920AA0223CDE9031001952D
:1056200002920093484653EC1A2B01F01DF80746EE
:1056300005440E9BDDF818B0069351EC1A0B0022BE
:10564000002305F013F9002800F052832B46DB1BE2
:1056500010930A9B472B00F01D830A9B462B00F0FA
:105660009F84209B0F930F9B0A9A013B412A209312
:1056700000F0A185E2B20021002BB8BF0F9B8DF88E
:105680008820BABFC3F101032D222B22092B8DF8EC
:10569000892040F381850DF1970EDFF8B0C1754682
:1056A0008CFB0321DA17C2EBA10202EB8201A3EB10
:1056B00041011E463031632E284605F8011C134671
:1056C00005F1FF35ECDC3033DAB2831E9E45294606
:1056D00005F8012C40F2F8850DF18A0301E011F87C
:1056E000012B03F8012B8E45F9D10DF199030DF132
:1056F0008A021B1A134422AA9B1A1893109B189A09
:10570000012B1A440A9240F3AE850A9B149A134463
:105710000A9300232BF480660E9311930F930A9B38
:1057200046F48072069223EAE37A1B9B002B40F03A
:10573000D8829DF87B200793FFF710BA069B590685
:1057400040F198810C9B53F8042B0C930FFA82FACA
:105750004FEAEA7B52465B46FFF753BA0C9B53F87D
:10576000042B0C9392464FF0000BFFF74DBBBBF19F
:10577000000F08BFBAF10A0F069DFFF40AAD05F449
:10578000806600230695CDF82880179DA04652AF6D
:1057900034461E4609E005F0F9F8BBF1000F08BFDA
:1057A000BAF10A0F1FD382468B460A2200235046C5
:1057B000594605F0EBF894460CF1300C07F801CC93
:1057C000504659460A2200230136013F002CE2D000
:1057D00095F800C06645DED1FF2EDCD09B4508BFA2
:1057E000924580F0918252ABDB1B44461795DDF861
:1057F000288010960A93FFF7E2BA134B0D96169382
:10580000069B9F0665D50C9B073323F00703F3E83F
:1058100002AB0C93069AD0070AD55AEA0B0307D0BD
:10582000302342F002028DF87D4006928DF87C30E4
:10583000069B23F480650223FFF721BA069D0D968F
:10584000FFF712BA48C4000818C400086766666605
:105850000D96FFF7CEBAAC4B0D961693D0E718EE27
:10586000101A26AA484604F0A5F800287FF40FACC9
:10587000289D0DF1A408FFF7E6B818EE101A26AA25
:10588000484604F097F800287FF401AC289D0DF1FC
:10589000A408FFF743BB43F4007374780693013602
:1058A000FEF7B1BF43F02003747806930136FEF78C
:1058B000AABF079B0E97062B28BF062307971197B1
:1058C0000F970B973A469A46904F0C950A93FFF71D
:1058D00045B9069BDE063ED50C9B53F8042B0C9372
:1058E00092464FF0000B95E718EE101A26AA48468C
:1058F00004F060F800287FF4CAABDDE927450DF11C
:10590000A40803E418EE101A26AA484604F052F838
:1059100000287FF4BCABDDE927450DF1A40802E4C3
:10592000DBF85800FEF700FCBBF80C3069E518EE18
:10593000101A26AA48461B9304F03CF800287FF46E
:10594000A6AB9DF87B20289D1B9B0DF1A408FFF7BB
:1059500057B8A34646E5069B5D066ED50C9B53F8EB
:10596000042B0C931FFA82FA4FF0000B52E718EE4B
:10597000101A26AA484604F01DF800287FF487ABC9
:10598000289D0DF1A408FFF7B4BABB462AE5BB4633
:1059900001332544072BC8F800B0CDE92735C8F8F6
:1059A00004407FF767A8FFF792BB012B069D7FF4A9
:1059B000EEA9FFF7EEBB0C9B089953F8042B11607E
:1059C0000C93FFF776B8102C279BDFF844B164DD09
:1059D0002A4610265D4618EE10BA04E008F10808C1
:1059E000103C102C57DD01331032072BCDE9273244
:1059F000C8E90056F2DD26AA5946484603F0DAFF08
:105A000000287FF4EFACDDE927320DF1A408E7E7C9
:105A10003846FEF715FE3346079602460A90FFF712
:105A2000D7B8DDF81CA001343544072CCDE9274553
:105A3000C8E900B67FF78EABFCE4069B13F4007F49
:105A40000C9B53F8042B0C9314BF5FFA82FA924616
:105A50004FF0000BDEE6069B13F4007F0C9B53F81F
:105A6000042B0C9314BF5FFA82FA92464FF0000B9E
:105A7000FFF7CAB9069B13F4007F0C9B53F8042B65
:105A80003FF469A94FFA82FA4FEAEA7B0C93524637
:105A90005B46FFF7B6B8AB46154601332544072BE6
:105AA000CDE92735C8F800B0C8F8044000F3E48019
:105AB00008F1080833E418EE101A484626AA03F045
:105AC00079FF00283FF400A891E4069B347843F462
:105AD00080630693FEF797BE109ABC18A4EB0B04E4
